:020000040002F8
:1060000088850020DD630200E5630200E76302008B
:10601000E9630200EB630200ED6302000000000090
:10602000000000000000000000000000EF6302001C
:10603000F163020000000000F3630200F563020058
:10604000AD6A0200996B0200CD710200B16E0200D0
:10605000C56E0200F76302009D670200596C0200E2
:10606000F7630200F7630200F7630200F7630200C0
:10607000F7630200F7630200F7630200F7630200B0
:10608000DD710200116C0200016B0200A9650200C3
:10609000D96E02003D6F0200456F0200F7630200F7
:1060A000F7630200F763020085710200AD71020020
:1060B000F7630200F7630200000000000000000028
:1060C000F7630200F7630200F7630200F763020060
:1060D000456C0200F7630200F76302000000000055
:1060E00000000000000000000000000000000000B0
:1060F00000000000000000000000000000000000A0
:10610000000000000000000000000000000000008F
:10611000000000000000000000000000000000007F
:10612000000000000000000000000000000000006F
:10613000000000000000000000000000000000005F
:10614000000000000000000000000000000000004F
:10615000000000000000000000000000000000003F
:10616000000000000000000000000000000000002F
:10617000000000000000000000000000000000001F
:10618000000000000000000000000000000000000F
:1061900000000000000000000000000000000000FF
:1061A00000000000000000000000000000000000EF
:1061B00000000000000000000000000000000000DF
:1061C00000000000000000000000000000000000CF
:1061D00000000000000000000000000000000000BF
:1061E00000000000000000000000000000000000AF
:1061F000000000000000000000000000000000009F
:10620000DFF80CD000F092F900480047CDC9020039
:106210008885002000B583B002900091019244F27D
:10622000010071466A4601F031FB03B000BD000079
:1062300030B450E8012F93B2C48923448489A34227
:1062400028BF1B1B0489A34202BFBFF32F8F00206E
:1062500007E0C3EA020340E80134002CE9D14FF023
:1062600001000A6030BC704750E8012FC2EA0242C8
:1062700040E801210029F7D1704730B450E8022FDF
:106280001FFAA2F3C488A34202BFBFF32F8F0020DE
:106290000DE0C48923448489A34228BF1B1BC2EAA2
:1062A000034340E80234002CE8D14FF001000A60BB
:1062B00030BC704750E8022FC2EA224240E8022177
:1062C0000029F7D17047034653E8022FD988B2EB73
:1062D000324F4FF0000017BF92B241EA014142EA4B
:1062E000014104E05A68B2EB324F08BF012043E895
:1062F0000212002AE8D1704730B4044654E8000F77
:106300000D4644E80053002BF8D1156030BC7047AF
:1063100030B4044654E8000F40EA010544E8005355
:10632000002BF7D1156030BC704730B4044654E8F8
:10633000000F00EA010544E80053002BF7D1156077
:1063400030BC704730B4044654E8000F80EA0105C1
:1063500044E80053002BF7D1156030BC704730B4CF
:10636000044654E8000F00EB010544E80053002BFD
:10637000F7D1156030BC704730B4044654E8000FC4
:10638000A0EB010544E80053002BF7D1156030BCA9
:10639000704770B404464FF0000054E8006F0D6879
:1063A000AE4207BF44E80023012044E800630E60CA
:1063B000002B1CBF0020F0E770BC704730B40446CF
:1063C00054E8000F88422CBF451A054644E80053A4
:1063D000002BF5D1156030BC70470000064880479F
:1063E00006480047FEE7FEE7FEE7FEE7FEE7FEE7BA
:1063F000FEE7FEE7FEE7FEE75D6F020001620200D6
:106400002DE9F05F0546002092469B4688460646E9
:10641000814640241BE0284641464746224600F07C
:1064200074F853465A46C01A914110D31146184683
:10643000224600F016F82D1A67EB01084F46224657
:106440000120002100F00DF817EB00094E41201E3D
:10645000A4F10104DFDC484631462A464346BDE844
:10646000F09F202A04DB203A00FA02F10020704756
:106470009140C2F1200320FA03F319439040704782
:10648000004870473469030040EA01039B0703D0CA
:1064900009E008C9121F08C0042AFAD203E011F863
:1064A000013B00F8013B521EF9D27047D2B201E025
:1064B00000F8012B491EFBD270470022F6E710B509
:1064C00013460A4604461946FFF7F0FF204610BD62
:1064D000421C10F8011B0029FBD1801A704730B50F
:1064E00004460020034600E05B1C934203D2E05CBC
:1064F000CD5C401BF8D030BD034611F8012B00F8ED
:10650000012B002AF9D118467047202A04DB203AD3
:1065100021FA02F00021704721FA02F3D040C2F1C3
:10652000200291400843194670470000064C074D71
:1065300006E0E06840F0010394E807009847103453
:10654000AC42F6D3FFF760FE647103008471030070
:1065500070B58C1810F8015B15F0070301D110F825
:10656000013B2A1106D110F8012B03E010F8016B52
:1065700001F8016B5B1EF9D12B0705D40023521ED5
:106580000DD401F8013BFAE710F8013BCB1A921C3D
:1065900003E013F8015B01F8015B521EF9D5A1423B
:1065A000D8D3002070BD000030B58DB066480078AB
:1065B000002840D1654807F035F8044600BF25465D
:1065C0003DB100BF62A24FF4A2712846FFF722FE40
:1065D00000BF00BF644807F041F9044600BF2546EC
:1065E0003DB100BF5AA240F247112846FFF712FE04
:1065F00000BF00BF5D4807F065F9044600BF2546AF
:106600003DB100BF52A24FF4A5712846FFF702FE2C
:1066100000BF00BF0821564807F0AAF9044600BF92
:1066200025463DB100BF4AA240F24D112846FFF772
:10663000F1FD00BF00BF0020019001A801F07EFB2A
:106640004C48D0F80802B0F5007F5CD23E48007894
:10665000022858D025200290474800680A2816D200
:1066600002AA03A9434804F025FC00BF029825288C
:1066700001D1012000E0002005463DB900BF34A251
:106680004FF4AD710020FFF7C5FD00BF21E03B498D
:106690000988032242EA014039A108F027FA02AA38
:1066A00003A9344804F0B2FB00BF0298252801D1A9
:1066B000012000E0002005463DB900BF24A240F2C1
:1066C00061110020FFF7A6FD00BF00BF00202A498E
:1066D00008601D480078012801D107F0F1F903A8EE
:1066E00007F018FA044600BF25463DB100BF18A2C6
:1066F0004FF4B6712846FFF78DFD00BF00BF0220A2
:10670000114908701AE010480078012816D000BF1F
:1067100007F082F90446112C0BD000BF25463DB18D
:1067200000BF0BA24FF4BB712846FFF773FD00BFFB
:1067300000BF112CECD00120034908709DF8040023
:1067400001F01EFB0DB030BDE43C00203C63002096
:106750006472697665735F785C6573625F74696D96
:1067600065736C6F742E6300886803008C68030087
:106770009068030054630020F83C0020583D00203E
:106780004641494C454420544F2053454E442C200B
:106790004E4F2041434B0D0A000000002DE9F04F01
:1067A00089B00027002008904FF4807007900126E0
:1067B000002412E0079807F01DFF40B100BF7B489E
:1067C0000068304018B1079807F006FF374376009D
:1067D0000798001D80B20790641C082CEAD34FF480
:1067E000BE7007F007FF50B14FF4BE7007F0F4FE23
:1067F00047F0004708AA0121002007F0D3FEF8B2B5
:1068000000B3012600241BE006EA0700B0B100BF78
:10681000674850F82400C0F30420804600BF644855
:1068200050F82400C0F301408146204603F01EF9D1
:10683000054615B149464046A84700BF7600641C8E
:10684000082CE1D307F0004000287DD000200690FE
:106850000590002505E04FF0FF3004A941F8250020
:106860006D1C002DF7D000BF0020069000245FE0D3
:106870005048005D0390039820F0C0094D48005730
:10688000401C002853D004A9484606F06DFC00289F
:106890004DD003984FEA901A484603F02FF98046EE
:1068A00003F0E4F80290029810B9BAF1030F3DD159
:1068B000BAF1030F03D105A9484606F060FC00BFFA
:1068C00000BF4FF0A041084600F5E06151F82910E3
:1068D000C1F3014800BF08A9484606F045FC8346BD
:1068E000BBF1000F02D0B8F1020F05D0BBF1000FD1
:1068F0001BD1B8F1030F18D1BAF1030F0FD1B8F1C2
:10690000020F01D1032000E00220019048460199C6
:1069100007F0D2FD0698401CC0B2069000BF029856
:1069200018B151464846029A904700BF00BF641C08
:10693000042C9DD3069888B34FF0010803AA0121C7
:10694000002007F02FFE00E02DE000250BE003A85B
:1069500050F8250008A951F82510884202D04FF0C0
:10696000000802E06D1C002DF1D000BFB8F1000F4F
:1069700002D00020069010E000250CE003A850F89B
:10698000250008A941F8250005A850F8250004A90C
:1069900041F825006D1C002DF0D000BF069800289E
:1069A0007FF462AF00BF09B0BDE8F08F0463004020
:1069B000106500406C54002000F01F02012191403E
:1069C000024A430942F823107047000080E200E0C9
:1069D00000F01F0201219140024A430942F82310AE
:1069E0007047000080E200E000F01F0201219140AA
:1069F000024A430942F823107047000080E100E09A
:106A000000F01F02012191404209920002F1E022B0
:106A1000C2F80011704700F01F02012191404209A5
:106A2000920002F1E022C2F80011704700F01F024C
:106A300001219140024A430942F8231070470000A7
:106A400000E200E000F01F0201219140024A4309E8
:106A500042F823107047000000E200E010B5002863
:106A600007DA4A07140E054A00F00F031B1FD4541F
:106A700003E04A07130E024A135410BD18ED00E05C
:106A800000E400E010B5002807DA4A07140E054AB2
:106A900000F00F031B1FD45403E04A07130E024AF1
:106AA000135410BD18ED00E000E400E010B54FF401
:106AB000807006F070FC80B14FF4807006F074FCBA
:106AC000012006F07BFC0D48407930B901200B49CC
:106AD000487108460168002088474FF4827006F02C
:106AE0005AFC50B14FF4827006F05EFC022006F0B2
:106AF00065FC024801680120884710BD6C3B0020FE
:106B000070B51D480078012802D106F0D9FF04466F
:106B100006F04EFD044600BF25463DB100BF17A25A
:106B200040F227112846FFF775FB00BF00BF06F0B3
:106B30001FFD044600BF25463DB100BF0FA24FF424
:106B400095712846FFF766FB00BF00BF06F0ECFC1E
:106B5000044600BF25463DB100BF08A240F22D11FA
:106B60002846FFF757FB00BF00BF00200949086017
:106B70000149087070BD0000E43C00206472697631
:106B800065735F785C6573625F74696D65736C6F64
:106B9000742E6300F43C002010B51948006838B129
:106BA0001848006800F0010010B100201449086086
:106BB00013480C30006870B11248006800F00800FB
:106BC00048B100200E490C3108600F48006810B130
:106BD0000D48006880470A481030006870B10948C5
:106BE000006800F0100048B100200549103108602D
:106BF0000648006810B105480068804710BD0000D5
:106C00000011004004130040CC3B0020C83B002092
:106C100010B500200949086000210948C0F8441156
:106C2000C0F84811C0F84C1100200549C1F8000116
:106C300002493C3908600EF069FB10BD401101406B
:106C40000010014010B504220021024805F066FB47
:106C500010BD000000400240FEB54FF4827008F005
:106C600011FA002837D04FF4827008F015FA6C48FA
:106C700090F82E0018B16A4890F82F0058B3002001
:106C80008DF8000066484068019065480189ADF8BC
:106C90000810C06818B900206149087412E0604803
:106CA000008B5F4948830846C06848600846008BEF
:106CB00008810020C860084690F82E0010B9002016
:106CC00008F00CFA56480168684688470020544985
:106CD00081F82F0000BF524890F82E00002852D0B3
:106CE0004FF4807008F0CEF900284CD04FF480703B
:106CF00008F0D2F94A48408B494991F82D10884252
:106D000016DD4748408B464991F82D10401A4449FA
:106D100048830A4612890B465B8BD21A0B465B6886
:106D200003EB42000A4692F82D1008F097F923E091
:106D30003B48408B3A4991F82D1088420FD1384892
:106D4000C06860B10120364981F82F0000204883D7
:106D50000A4692F82D10D06808F080F90CE030480F
:106D6000408B2F4991F82D10884205D101202C49E4
:106D700081F82F00002048834FF4827008F08CF9CE
:106D8000042008F0ABF94FF4887008F07BF970B17B
:106D90004FF4887008F080F900202149087402201F
:106DA0008DF80000084601686846884700BF4FF428
:106DB0008A7008F067F938B14FF48A7008F06CF9FE
:106DC0000020174908742AE01548456924E0B5FAFF
:106DD00085F64FF00040F0408543B00000F58C741C
:106DE000204608F04FF9B8B1204608F055F90120C7
:106DF0008DF80000A4F58C70C0F3C7008DF8040076
:106E0000A4F58C70012121EA90018DF80510044849
:106E100001686846884700BF002DD8D100BFFEBD7D
:106E2000D854002010B500F0F9F910BD2DE9F04755
:106E3000074688461646C24607EB47011B4800EB4B
:106E4000C109D9F8140020B1012811D0022826D197
:106E50001EE0484600F01AFA0546B54201D2002469
:106E600005E0344632465146484600F056FA18E0EE
:106E7000484600F00BFA0546B54201D2284600E02C
:106E80003046044622465146484600F046FA08E09D
:106E900032465146484600F007FA044601E0002415
:106EA00000BF00BF2046BDE8F0870000BC600020A6
:106EB00010B50249024805F01FFA10BD9054002099
:106EC0000030004010B503494FF0402005F014FA9F
:106ED00010BD0000B45400203EB516480068019073
:106EE00002A806F07FFB04461CBB1348006800B3F1
:106EF000029800F0010030B100208DF800006846D3
:106F00000D4909688847029800F0020030B101205D
:106F10008DF800006846084909688847029800F023
:106F2000040030B102208DF800006846024909686B
:106F300088473EBDB83B0020903B002010B50EF0C6
:106F4000EFF810BD10B508F02DFB10BD0249014847
:106F5000086070470090D003FC3C002070B503F03F
:106F6000EFFA4FF0805528B1B5F82403C0F304219F
:106F70007548016003F020FB10B1754973484867FC
:106F800003F03EFB28B1D5F844027249C0F3423009
:106F9000086003F053FB20B16F48016821F0807155
:106FA000016003F061FB002428B16C480460446078
:106FB0006848001F046003F075FB18B165490320A1
:106FC0006431086003F084FB012658B16449052050
:106FD0000860634878300660614808300460091D25
:106FE0003F20086003F08AFBF0B35E4800685E490A
:106FF00008605C48001D0068091D08605948083099
:107000000068091D086057480C300068091D0860B9
:10701000544810300068091D086052481430006858
:10702000091D08604F48183000684F49203108603A
:107030004C481C300068091D08604A482030006830
:10704000091D0860474824300068091D086045484C
:1070500028300068091D086042482C300068091D6E
:1070600008604048303000E017E000683E49403199
:1070700008603C4834300068091D086039483830E1
:107080000068091D086037483C300068091D086029
:10709000344840300068091D086003F033FA28B115
:1070A000D5F85802314900F04F00086003F066FA45
:1070B00030B12F480168C90702D06FF001010160AB
:1070C00003F090FA20B12B48016841F4806101601F
:1070D00021487438016841F470010160BFF34F8F9B
:1070E000BFF36F8F4FF01022D2F80002002803DBAD
:1070F000D2F80402002822DA1F4B1E601F480168E4
:107100000029FCD01525C2F8005201680029FCD0E6
:10711000C2F8045201680029FCD01C6001680029F3
:10712000FCD0BFF34F8F0C48F0380168144A01F4CB
:10713000E06111430160BFF34F8F00BFFDE7BDE881
:107140007040FFF703BF0000403501400DF0ADBABD
:1071500000C007403C050040FCED00E00C01004091
:10716000105600400404001020C50040E40E00400A
:10717000000400403C17004004E5014000E40140E9
:107180000400FA050648006848B100200449086078
:1071900004480078032802D10120034908617047A0
:1071A00040A10140893B00200010004000B58BB099
:1071B00001A806F0FDFA9DF804100DF10900024A3D
:1071C000126890470BB000BDE83C002010B50249A2
:1071D0000868804710BD0000743B002008B50120FE
:1071E0000B490968014009B1012100E00021012992
:1071F0000DD100BF00200902064A885008461146FA
:107200004058009000BF00BF03480068804708BD99
:1072100004030140000001407C3B002010B5124CEB
:1072200002202061606111A0A0611349E1614FF467
:10723000007121620021A1626162E1620BA0A06481
:107240000E49E164102121650021A1656165E165B8
:107250000BA1E01DFFF750F90AA12046FFF74CF9FA
:107260002020A07110BD0000A46000205465726D44
:10727000696E616C000000001C6100201C6300202E
:1072800052545400534547474552000010B501463B
:107290000A69CB689A4204D88C68641EE41AA01864
:1072A00001E0D41A601E10BD2DE9F047044689465E
:1072B00017464FF0000AE56800BFD4F81080A845D3
:1072C00003D9A8EB0500461E04E0A5EB0800401C0E
:1072D000A1680E1AA068401BB04201D9304601E0F7
:1072E000A068401B0646BE4201D2304600E0384648
:1072F00006466168481932464946FFF7C5F8B24468
:10730000B144BF1B3544A068A84200D10025E56008
:10731000002FD2D15046BDE8F0872DE9F047044652
:1073200089461546E668A068871BAF4208D96168A0
:1073300088192A464946FFF7A7F87019E06010E05F
:10734000B8466168881942464946FFF79DF8A5EBA3
:10735000070809EB070142466068FFF795F8C4F893
:107360000C80BDE8F08702E008C8121F08C1002A9F
:10737000FAD170477047002001E001C1121F002AB6
:10738000FBD170470146202908DA012088400A4ACB
:10739000104008B1012070470020FCE7402909DABD
:1073A000A1F12000012202FA00F008B10120F2E769
:1073B0000020F0E70120EEE7FC06FFBD01460829AA
:1073C00001D30020704719B1012901D0042901D14E
:1073D0000020F7E70120F5E710B5044619480278C8
:1073E0000078401C174B187017480188174800F0A8
:1073F00035F814480078082802D100201149087097
:1074000011480088801C1049088008460088A4287C
:1074100016DBA4210D480BF0D3FB0D48007820B1FA
:10742000AC220A490B480CF0BFFB04200649088037
:1074300009480088401C08490880044809884180A0
:1074400010BD0000E43A0020E23A0020743F002022
:10745000E03A0020643E00209C3A0020F8B5054642
:107460000E461446072C02DD4FF0FF30F8BD0948E8
:1074700010F814008DF80000064800EB4400407836
:107480008DF80100AA190223194668460DF010FB79
:107490000220EBE7D33C002070B505460E46254997
:1074A0000988032242EA014023A107F01FFB0121C2
:1074B000082007F03CF8642005F08AFF04F068FD1E
:1074C000224823490988018004202249088000209D
:1074D00021490870012005F07BFF1F4802780078E1
:1074E000401C1D4B18701B4801881848FFF7B6FF59
:1074F000012005F06DFF184802780078401C164BFB
:107500001870144801881148FFF7A8FF00BF002237
:1075100020211248006800F0CFFB04463CB100BFB8
:107520000FA24FF4C1712046FEF774FE00BF00BFEA
:1075300070BD0000583D0020736574207570206197
:10754000646320616E6420786C000000743F00204A
:107550009E3A0020E23A0020E43A0020186203003C
:107560002E2E5C2E2E5C2E2E5C6D61696E2E6300BD
:1075700070B505460C4605B10CB9002070BD2878E1
:1075800040082178B0EB510F01D00020F6E7062229
:10759000611C681CFEF7A3FF08B90120EEE700207C
:1075A000ECE710B50446204602F03AFA00BA10BDE6
:1075B000014601F0030008B9012070470020FCE7F4
:1075C000024650680068401E084008B90120704714
:1075D0000020FCE70246002104E0505C08B10120D5
:1075E0007047491C0629F8D30020F9E710B5034677
:1075F000D868884206D88818401E1C69A04201D865
:10760000012010BD0020FCE710B504466CB108480D
:10761000C068A04209D806480069A04205D32046A8
:1076200004F027FF08B1012010BD0020FCE7000096
:10763000003D002070B504460D4604F1AB00FFF795
:10764000C9FF0646012D06D0022D0DD0032D11D005
:10765000042D19D113E0A07928B194F8240010B9B1
:107660000EB1012070BD00BFE07910B10EB1022053
:10767000F8E700BF207A08B10320F3E700BF607A83
:1076800008B10420EEE700BF0020EBE70146481CEC
:10769000052290FBF2F302FB1300C0B2704710B555
:1076A00001220221002001F093FE044600BF1CB11C
:1076B000072C01D0204610BD00BF07220221012067
:1076C00001F086FE044600BF1CB1072C01D0204605
:1076D000F1E700BF0A220021084601F079FE0446C6
:1076E00000BF1CB1072C01D02046E4E700BF0020FA
:1076F000E1E7000070B5B0B04FF2120528128DF826
:107700000C00E8B28DF80D002A486DDF2948401CB6
:107710000168CDF80E108088ADF812002648254982
:10772000B1F801100180AC2105A8FEF7C6FE4FF6A6
:10773000FF70ADF8000003A902910820ADF8040025
:10774000CDF838D002208DF8140001208DF81600F5
:10775000ADF8240019490A9101218DF890104FF4D9
:107760009671279141F27071289101218DF8911045
:107770004FF41661299100212A9111482E9004207E
:107780008DF8170005A90F4800F0EAFE044600BF77
:1077900026463EB100BF0CA240F22A613046FEF7F9
:1077A00039FD00BF00BF0121064800F0D6FE30B011
:1077B00070BD0000A03A00209E3A0020E83A002068
:1077C00081050300883D00202E2E5C2E2E5C2E2E7F
:1077D0005C6D61696E2E630070B50446012C02D1A8
:1077E00002F080FD11E00321084800F07BFF054610
:1077F00000BF2E463EB100BF05A240F2CF61304629
:10780000FEF708FD00BF00BF00BF70BD883D00202F
:107810002E2E5C2E2E5C2E2E5C6D61696E2E63000A
:1078200070B58CB004460D461646002005E0C0F148
:107830000F01615C0DF80010401C1028F7D30D21DA
:1078400004A8FEF73AFE002005E02A5CC0F10F0311
:1078500004A9CA54401C0328F7D3684646DF002019
:1078600005E0C0F10F0208A9895C3154401C0328CF
:10787000F7D30CB070BD000010B504460248017883
:10788000204601F065F910BD4C3B00202DE9FE4378
:1078900007460E46144672B600BF07F045FA00BF11
:1078A00000BF06F0A3FF0028FBD100BF00BF012FDF
:1078B0000CD06FF48050384488B1B0F5405F24D0CC
:1078C0006FF44051084400283BD111E02A4909884F
:1078D000012242EA014029A107F008F93BE02649CC
:1078E0000988012242EA01402CA107F0FFF832E0AA
:1078F00025462B88204909884FF0010C4CEA0140AD
:107900002FA16A6807F008F925E02546A86807F066
:1079100039FF8046D5E900108DE8430016490988F3
:10792000012343EA014043462CA1AA6807F018F955
:1079300011490988012242EA014032A107F0D6F834
:1079400009E00D490988012242EA0140324632A18C
:1079500007F0D6F800BF00BF00BF3548006800F050
:10796000010000B100BE00BF22463146384600F09B
:1079700061F8BDE8FE830000583D0020534F465497
:107980004445564943453A20415353455254494F83
:107990004E204641494C454400000000534F465498
:1079A0004445564943453A20494E56414C494420A6
:1079B0004D454D4F5259204143434553530000001C
:1079C000415353455254494F4E204641494C45443A
:1079D0002061742025733A25750000004552524FEE
:1079E00052202575205B25735D2061742025733A34
:1079F00025750D0A50432061743A203078253038BF
:107A000078000000456E64206F66206572726F72A8
:107A1000207265706F727400554E4B4E4F574E205A
:107A20004641554C54206174203078253038580038
:107A3000F0ED00E008B5012300939DF80030154BF0
:107A4000186059609A606FF48041401809D001288D
:107A500011D1DA60D86800889861D8684068D86128
:107A600009E01A61186980685861186900689861AE
:107A700018694068D861186858689868D8681869A3
:107A800058699869D86972B69DF800000028FBD142
:107A900062B608BD2C5800202DE9F84307460C4675
:107AA000904626480088844244DC4FF6FF7500204B
:107AB0000090684600F042F900BF214890F800901D
:107AC0002048007805F08AF9484501D1012000E0FE
:107AD000002030B91B480578007805F07FF9194976
:107AE00008709DF8000000F04BF94FF6FF708542DA
:107AF0001ED01548006840F835808FB1002C0FDD8E
:107B0000124909680D4A128805FB021022463946BF
:107B1000FEF7BAFC0C48006800EBC500848005E065
:107B200000200949096801EBC5018880002600E0B2
:107B3000042600E009263046BDE8F883E63B002035
:107B4000E43B0020E53B0020DC3B0020E03B002044
:107B50002DE9F0411AE016480478164800681649E5
:107B6000098804FB01051548006800EBC4008688FD
:107B70001248006850F8347031462846B8470C481F
:107B8000007805F02BF90A49087000BF00BF0020FB
:107B900058B900BF0649087809490978814201D1DE
:107BA000012100E000210029D5D0BDE8F0810000CE
:107BB000E43B0020E03B0020E63B0020DC3B0020D3
:107BC000E53B002030B50346481C4FF6FF7505EA3B
:107BD000C004104600F003050DB9012500E00025A2
:107BE0000DB9072030BD084802601019074D286004
:107BF0000020074D2870074D28700748038007486C
:107C000001800020EEE70000DC3B0020E03B00208C
:107C1000E53B0020E43B0020E63B0020E83B002061
:107C200010B503460C4600BF0B48807808B9082001
:107C300010BD00BF0AB90720FAE70BB90720F7E724
:107C40001868007C08B10820F2E719680020087461
:107C50004C744A6100BFEBE74C58002010B50BF0A4
:107C60003BFA00200F4908704870112088700020EE
:107C70000D4908600D4908700D4908701520FEF780
:107C8000A7FE07211520FEF7FDFE1520FEF7C3FE17
:107C900000200BF0F7F90BF0EFF90649086000201F
:107CA00010BD00004C580020EC3B0020FC3B0020A5
:107CB000FD3B0020F03B00202DE9F04104460E463C
:107CC0001746254600BF1048807810B90820BDE847
:107CD000F08100BF0CB90820F9E7052E01D207207A
:107CE000F5E7686908B90820F1E7687C012801D147
:107CF000304600E0002080463B464246314628465A
:107D00000DF0B4FAE3E700004C58002070B50446CB
:107D1000254600BF0848807808B9082070BD00BF1C
:107D20000CB1686908B90820F8E70020287402211E
:107D300028460DF0CAFAF1E74C58002030B5EFF3B1
:107D4000108372B60B4A94680121002C04D0017094
:107D5000002B00D162B630BD916007490D68074C19
:107D6000254015600C604C6854604A174A60002139
:107D70000170EDE7E859002080E100E0FC06FFBD5E
:107D800009498A68002A0ED000280CD1EFF3108030
:107D900072B60B68054A13604B68536000228A6014
:107DA000002800D162B67047E859002000E100E0E9
:107DB000F8B505460C4617462088001DB84201D983
:107DC0000C20F8BD684679DF064600BF304600B19A
:107DD000F7E700BF0320218868542088401C2080DA
:107DE0001920218868542088401C2080208841194F
:107DF000BDF800000DF007FC218808442080002019
:107E0000DFE7000010B500224FF4C03109480068D8
:107E1000FFF752FF00224FF4803107480068FFF758
:107E20004BFF00224FF4F01104480068FFF744FFB5
:107E300010BD00001C6203002C62030028620300D6
:107E40000748006820F001000549086005480068FF
:107E500020F0010040F08070024908600020704767
:107E6000501600407417004070B504460D46204679
:107E700004F092FC70BD10B50446637903F0030270
:107E80002179208804F0A2FB10BD10B504462079AA
:107E900018B9204600F008F803E02046FFF7EBFF92
:107EA00000BF00BF10BD00002DE9F04F87B00446B1
:107EB00000252788384603F053FF8046C146AA466E
:107EC00000223B480178384600F058FE6079C0F344
:107ED000800000284CD04FF6FF764FF0010A05AB2A
:107EE00001220721404609F03DFB054635B12946F0
:107EF00038460BF0FBFE4FF0000A05E04FF6FF712D
:107F0000069803F06BFE06464FF6FF70864211D0CE
:107F1000B1464946384603F005FF3846FFF7ACFC4A
:107F200040B938460BF088FE3846FFF7A5FC08B983
:107F30004FF0000ABAF1000F0CD04A460721404624
:107F400009F095FB05462DB1294638460BF0CEFECB
:107F50004FF0000A4FF6FF70864208D0384609F00D
:107F600039FD20B1404603F0E5FE834600BF08E03E
:107F7000384609F02FFD20B1404603F0DBFE0646EF
:107F800000BF02208DF80000ADF802706079C0F3E8
:107F9000800008B1012000E002208DF808008DF873
:107FA00009A0684602F0C2FC07B0BDE8F08F0000EF
:107FB000483B002010B504460B4800884FF6FF717F
:107FC000884205D109480078401C0849087002E041
:107FD00000200649087005480078052803DD0121C6
:107FE0000D2006F0A4FA10BDE63A0020E13A002088
:107FF0002DE9FF4781468A464FF000084148006856
:10800000039001208DF80F0002208DF80C0003AEC4
:108010003D4F06B93D4E3946304607F04DFF044608
:1080200000BF00BF26463EB100BF39A240F29B21EF
:108030003046FEF7EFF800BF00BF324A121D07CAF4
:108040008DE8070005208DF804006946404607F0DA
:1080500095FE044600BF26463EB100BF2CA24FF459
:1080600029713046FEF7D6F800BF00BF2C494046C4
:1080700007F0F4FF044600BF26463EB100BF24A22D
:1080800040F2A7213046FEF7C5F800BF00BF4046CA
:1080900007F0E6FE08F060F822490988032242EA68
:1080A00001401F49B1F900201FA106F029FD1C481D
:1080B0000088C0F307154FF6FE7229461F4800F0EE
:1080C000D1FB04468CB1082C0FD0132C0DD0112CF1
:1080D0000BD043F20140844207D000BF0CA240F213
:1080E000BB212046FEF796F800BF44B90D49098828
:1080F000032242EA01402A4611A106F001FDBDE833
:10810000FF870000586203001D320300466203002F
:108110002E2E5C2E2E5C2E2E5C6D61696E2E630001
:10812000923A0020583D0020206164635F76616CC4
:1081300075655F62612E2E2564000000403E0020C0
:1081400020696E206D61696E202E2E2E2062617472
:10815000206C6576656C20747261736E66657265FD
:10816000642E2E2564000000002112E00B48D0F898
:108170001024012306E000BF107A884201D10023B9
:1081800002E05268002AF6D100BF0BB108467047E2
:10819000491C0A29EADB4FF0FF30F8E7805C002039
:1081A000F0B591B004460D46607CD8B1002009902E
:1081B00000BF9DF8240020F00F00401C8DF8240023
:1081C0009DF8240020F0F00010308DF8240000BF4E
:1081D000687B8DF825009DF8260020F00600801CA5
:1081E0008DF826001C210AA8FEF767F99DF82800E3
:1081F00020F00200801C8DF82800607C08B101206E
:1082000000E000209DF8281060F304118DF828107C
:1082100000200B900D900E90607C08B109A800E042
:1082200000200F900020109000BF01208DF80E005C
:1082300042F61920ADF80C0000BF00200290A87B88
:108240008DF80800E87B8DF809009DF80A0020F001
:108250000600801C8DF80A009DF80A0020F0080036
:108260008DF80A009DF80A0020F010008DF80A0031
:108270009DF80A0020F001008DF80A00287B01908B
:10828000142104A8FEF719F903A8049002A8059088
:108290000120ADF818000020ADF81A000120ADF85B
:1082A0001C0001A80890A088A31D04AA0AA9AADF9F
:1082B000064616B1304611B0F0BDA868002855D06A
:1082C00000BF01208DF80E0042F60810ADF80C003A
:1082D00000BF00200290287C8DF8080000BF9DF8A8
:1082E000090020F00F008DF809009DF8090020F02A
:1082F000F0008DF8090000BF9DF80A0020F006008C
:10830000801C8DF80A009DF80A0020F008008DF806
:108310000A009DF80A0020F010008DF80A009DF870
:108320000A0020F001008DF80A006846A96800F0F4
:1083300004FF0746142104A8FEF7BFF803A8049021
:1083400002A80590ADF818700020ADF81A00BDF82D
:108350001800ADF81C00CDF820D0E08804F10E0222
:1083600004A9ABDF06461EB13046A4E70020E08139
:108370000020A0E770B504460D4621462846AEDF32
:108380000646304670BD2DE9FC4105468846164636
:10839000002437880020308095F82D0058B13A46E7
:1083A0003146404600F016FC044600BF204608B1A6
:1083B000BDE8FC8100BFA87850B13A46314640463E
:1083C000FFF7F6FC044600BF204600B1F0E700BF0F
:1083D000E87860B1E97848B23B463246414602F05F
:1083E000FBFD044600BF204600B1E1E700BF68681E
:1083F00068B1696891F900003B46324641460DF08C
:10840000E7F8044600BF204600B1D1E700BF288945
:1084100000280EDD43460622022105F10800CDE9C1
:1084200000670DF03BFB044600BF204600B1BFE7EC
:1084300000BF288A00280EDD43460722032105F1EC
:108440001000CDE900670DF029FB044600BF20466F
:1084500000B1ADE700BF288B00280EDD4346152292
:10846000142105F11800CDE900670DF017FB044653
:1084700000BF204600B19BE700BF286A58B13B46C9
:1084800032464146286A01F02EFD044600BF2046D0
:1084900000B18DE700BF686A58B13B46324641469D
:1084A000686A04F02BFB044600BF204600B17FE75A
:1084B00000BF95F82C0000280BDD3B4632464146B4
:1084C00028460BF0ABFD044600BF204600B16FE725
:1084D00000BF287858B13B4632464146284604F052
:1084E000BBFB044600BF204600B161E700BF204649
:1084F0005EE7F8B504460E461546002000902B4670
:108500006A463146204600F008F807460FB90020B9
:10851000F8BDBDF800002044FAE730B504460D462A
:1085200004B10AB9002030BD002103E0605C401CAA
:10853000084481B21088884203DC481C205C9842C1
:1085400001D0A942F2DBA94201DB0020EBE7881C45
:108550001080605C401E80B2E5E780F83010704704
:1085600070B504460D4605B10CB90E2070BD05F17D
:10857000780001F059FC08B90720F7E70020A07047
:108580002C2205F17801201DFDF77EFF002084F8E4
:108590003000D5F8A4006063D5F8A800A0634FF6BA
:1085A000FF70A4F8A80004F19400C4F8A40000210E
:1085B000B020C4F8AA10A4F8AE100155207810B964
:1085C000FF2084F8540004F15500C4F894001F21E2
:1085D0009820015304F1980204F155012846FFF751
:1085E000D2FE064600BF304600B1BFE700BF05F12E
:1085F0003C00A0B104F174009C2108511F21A4F893
:10860000A0109C20015904F1A00205F13C00FFF7E5
:10861000BAFE064600BF304600B1A7E704E00021DD
:108620009C200151A4F8A010012151200155208B5C
:1086300081B248200153012084F83C0000212164CC
:10864000502001556169616404F13C02002104F18C
:10865000540072DF064600BF304600B186E700BF17
:1086600001202070304681E770B504460D462E4645
:108670002088102804D0112807D026280FD109E01F
:108680002146304608F010F80AE02146304608F04E
:10869000CCF805E02146304608F031FC00E000BF90
:1086A00000BF70BD2DE9F04105460E463446022D4F
:1086B00002D0032D12D100E000BF607868B1002025
:1086C0006070A178204600F00DF8074627B1A06B36
:1086D00010B13846A16B884700BF00E000BF00BF63
:1086E000BDE8F08170B504460E46207808B9082030
:1086F00070BDA67002F0E6FC18B101206070002089
:10870000F6E70021B020C4F8AA10A4F8AE10015575
:10871000A07910B1A078012809D0E07910B1A07833
:10872000012804D0E07970B1A07802280BD1606BE9
:1087300030B1012084F8B1000820616B884702E065
:10874000002084F8B10031462046FEF773FFA07088
:10875000606BA0B1A078032802D0A07804280ED1C5
:10876000607960B194F8B20048B9002084F8B40090
:10877000012084F8B3000720616B884702E00020E5
:1087800084F8B300182104F13C00FDF796FE0120A7
:1087900084F83C0004F12C0009F0F8FA20B194F8B8
:1087A0002C105120015502E001215120015594F86F
:1087B000240060B104F12C0009F0E8FA20B194F82B
:1087C00028105220015502E00121522001550021BC
:1087D00050200155A078052824D2DFE800F01F03BF
:1087E0000A11180004F13C0120460BF05DFD05461E
:1087F00019E004F13C0120460BF03EFD054612E075
:1088000004F13C0120460BF061FD05460BE004F14C
:108810003C0120460BF088FD054604E0002084F86A
:10882000310000E000BF00BFA07898B104F13C0225
:1088300004F15400D4F8A41072DF05460DB12846A7
:1088400056E794F8301094F8540073DF05460DB1E4
:1088500028464DE7606B18B194F83100616B88478A
:10886000002045E7F7B592B00446164614B90E202D
:1088700015B0F0BD00270020109011900120ADF838
:1088800040000020ADF8420013A81190E18810AA22
:108890004FF6FF70ACDF07461FB99DF84C002074FF
:1088A00001E03846E4E7607C00283CD000200C90D2
:1088B0000D900E900F90E088ADF8300001208DF8FB
:1088C0003200BDF84200ADF8340010A80E901198A7
:1088D0000F904FF6FE7086421FD101A800F0D0F82D
:1088E000002516E002A931F8150000F00DF9022864
:1088F0000ED13FB902A830F815100CA8FFF73AFDC9
:10890000074605E002A830F815100CA8FFF732FD65
:108910006D1C0198A842E5D804E031460CA8FFF789
:1089200029FD074600E008273846A1E7F8B50446C8
:108930000D4604B10DB90E20F8BD286820602879D5
:108940006074FF20207400BF01208DF8020041F602
:108950000F00ADF8000000BF221D69460120A8DF0E
:10896000064600BF304600B1E6E700BF2946204674
:10897000FFF716FC06463046DEE770B504460D46A6
:1089800005B104B970BD2E462088502804D1214677
:10899000304608F011FB00E000BF00BF00BFF1E768
:1089A0002DE9F04107460D4643F20206384603F032
:1089B000ADFB044605B90A4D74B12946384675DF4A
:1089C00006464EB900206072012020722868C4F863
:1089D0000A006868C4F80E003046BDE8F081000067
:1089E0000C3B00202DE9F041044600BF14B90E20D5
:1089F000BDE8F08100BF1C2221461C48FDF744FD64
:108A00001B481A490860206860B120687ADF054673
:108A10000DB12846ECE7164821680A6802604968EB
:108A2000416005E012487BDF05460DB12846DFE7CF
:108A3000002617E006EB86000E4901EB800700BF19
:108A40004FF6FF70388000BF0B4800EB461078608F
:108A50000A4A0021381DFFF7E3F805460DB103204F
:108A6000C6E7761C002EE5D00020C1E71851002093
:108A70000C3B002004510020E450002081590300E9
:108A800010B5044602484168204601F0E1F910BDE6
:108A90003451002010B50446204600F08DF820B176
:108AA0002146034804F068FA10BD0020FCE70000EE
:108AB0004451002070B504460D46164620460CF081
:108AC000A9FF08B9002070BD034951F824003246BF
:108AD000294602F027FBF6E74C51002070B504460A
:108AE0000025204600F068F850B12146054804F002
:108AF00043FA06460EB1022000E00120054600BF01
:108B0000284670BD4051002070B50446002520461F
:108B100000F052F850B12146054804F02DFA0646FF
:108B20000EB1022000E00120054600BF284670BDBE
:108B30003C51002010B51821044804F0EDF904461A
:108B4000182C00D110BDE0B2FCE700003451002029
:108B500070B505460C4620460CF05CFF50B1284627
:108B600000F02AF830B1044901EB8400294604F0F2
:108B700003FA70BD0020FCE74C51002070B505469B
:108B80000C46164620460CF045FF88B1284600F0FA
:108B900013F868B136B1074901EB8400294604F0A7
:108BA000FAF905E0034901EB8400294604F08EF947
:108BB00070BD00004C51002010B50446142C01DBA0
:108BC000002010BD2146024804F0D6F9F9E7000064
:108BD000385100202DE9FC4105460C4617462088F7
:108BE0000930B84202D90C20BDE8FC8168466DDF2F
:108BF000064600BF304600B1F6E700BF08202188D6
:108C000068542088401C20801B20218868542088BC
:108C1000401C208020882844DDF801100160BDF848
:108C2000051081802088801D20809DF8000040086C
:108C300018B900202188685402E001202188685476
:108C40002088401C20800020CEE700002DE9F8435A
:108C50000446884600252088212873D006DC102889
:108C60001ED0112807D012286DD146E03B286BD0CA
:108C70005628F9D1A9E05F490988032242EA014058
:108C80005DA105F033FF4FF6FF705F4908800020BB
:108C90005E490870022631465D480BF055FCA6E09F
:108CA000072000F0C3FB054600BF2F463FB100BFC1
:108CB00058A240F25E513846FDF7ACFA00BF00BF43
:108CC000A0885149088008460188564804F0FCFAFB
:108CD000054600BF2F463FB100BF4EA240F2615192
:108CE0003846FDF797FA00BF00BF00224FF420215D
:108CF0004D480068FEF7E0FF79E022893D49098888
:108D0000032343EA014049A105F0FAFE628939498B
:108D10000988032343EA014048A105F0F1FE2089B8
:108D2000322812DD33490988032242EA014047A173
:108D300005F0DCFE3C480068FEF7E8FF00204C49E7
:108D400008701DE01DE051E02EE04948007805283C
:108D50000EDDA0883B2176DF0546264909880322DF
:108D600042EA0140434905F0C1FE00204049087035
:108D700020490988032242EA01403FA105F0B6FEDE
:108D800035E000200090A08869468FDF054600BFCF
:108D90002F463FB100BF1FA240F285513846FDF774
:108DA00039FA00BF00BF22E0A088132176DF054614
:108DB00000BF2F463FB100BF16A240F28E51384689
:108DC000FDF728FA00BF00BF11E0A088132176DF6D
:108DD000054600BF2F463FB100BF0EA240F296519C
:108DE0003846FDF717FA00BF00BF00E000BF00BF24
:108DF000BDE8F883583D0020446973636F6E6E656B
:108E0000637465642E000000E63A0020E03A00201A
:108E1000D03A00202E2E5C2E2E5C2E2E5C6D6169C9
:108E20006E2E63007C3D0020206203006D696E2081
:108E30003A20697320256420000000006D617820CD
:108E40003A2069732025642000000000424C455FF1
:108E50004741505F4556545F434F4E4E5F5041521D
:108E6000414D5F5550444154452073756363000084
:108E7000AD3A002038690300424C455F4741505FDE
:108E80004556545F434F4E4E5F504152414D5F55E2
:108E90005044415445206D696E203C2032303030C2
:108EA0000000000070B505460E462888102802D044
:108EB00011282CD115E01748006860B901F066F957
:108EC000044600BF34B11448006818B12046124966
:108ED0000968884700BF0F480068401C0D490860BA
:108EE00016E00C480068401E0A4908600846006801
:108EF00060B9FEF7D4FB044600BF34B106480068F1
:108F000018B1204604490968884700BF00E000BF47
:108F100000BF70BD083B0020043B002070B5044634
:108F20000D462088102806D0112808D012280ED00F
:108F3000502810D107E0204607F07EFB0CE02046C9
:108F400007F05AFC08E0204608F00AF804E0204642
:108F500007F05AFB00E000BF00BF70BD2DE9F041F3
:108F600004468846A5882088102804D0112817D0E8
:108F70001A2849D118E00AF005F8284609F07CFEC5
:108F800030B900BF22A2E2210420FDF743F906E038
:108F9000E07B012803D029462C4803F0FCFF33E096
:108FA00028460AF013F82FE0207A0121B1EB101FB8
:108FB00001DA012000E000200646207A0221B1EB10
:108FC000101F01DA012000E0002007468EB129467B
:108FD0001E48001D03F0DFFF2FB129461B48083053
:108FE00003F0D9FF0FE029461848083003F06EFF60
:108FF00009E029461548001D03F068FF294613487B
:10900000083003F063FF00BF00BFBDE8F08100003F
:109010002E2E5C2E2E5C2E2E5C2E2E5C2E2E5C2E8A
:109020002E5C636F6D706F6E656E74735C626C65E1
:109030005C636F6D6D6F6E5C626C655F636F6E6EAF
:109040005F73746174652E6300000000405100205E
:1090500070B504460D4600BF0748007800B970BDE2
:1090600000BF204602F038FD20460BF029FA2046CA
:1090700002F066FA00BFF2E7383B00200A46038898
:10908000102B06D0112B07D0502B09D0572B09D10C
:1090900007E08388938006E04FF6FF73938002E039
:1090A00001E000E000BF00BF7047000070B504465B
:1090B0000E4635462088102804D011280DD050289F
:1090C0001CD116E0A088A8800E490988032242EA34
:1090D00001400DA105F00AFD11E00A4909880322AB
:1090E00042EA01400CA105F001FD4FF6FF70A88097
:1090F00005E02146284609F0BFFC00E000BF00BFA4
:1091000070BD0000583D0020736320636F6E6E6574
:10911000637465642E000000736320646973636F79
:109120006E6E65637465642E0000000001784078FF
:1091300041EA002000F0010070470A7802704A7886
:1091400002214270084670477FB506F0E7F90446F1
:1091500000BF25463DB100BF23A240F2A9512846D9
:10916000FDF758F800BF00BF0020039003A90120BD
:1091700005F0C6FF044600BF25463DB100BF1AA258
:1091800040F2AF512846FDF745F800BF00BF002070
:1091900000900190029001208DF8000008208DF8C9
:1091A000020069462220039A69DF044600BF254673
:1091B0003DB100BF0CA240F2B7512846FDF72AF896
:1091C00000BF00BF03A806F05DF8044600BF2546B7
:1091D0003DB100BF04A240F2BC512846FDF71AF889
:1091E00000BF00BF7FBD00002E2E5C2E2E5C2E2EF9
:1091F0005C6D61696E2E630001460148405C7047FA
:109200008262030010B502460949885C00BF4FF036
:10921000A0442146D1F80435012484409C43C1F880
:109220000845012484401C40C1F80C4500BF10BD16
:109230007E62030010B504460249085D012105F075
:1092400093F910BD7E62030010B504460249085D23
:10925000002105F089F910BD7E62030010B50146BA
:10926000094B585C00BF4FF0A044234600BFD3F821
:109270000445C44004F001040CB1012000E00020CA
:10928000024682F0010010BD7E62030010B500248A
:1092900003E02046FFF7CEFF641C042CF9D310BD79
:1092A00010B5002403E02046FFF7CEFF641C042C19
:1092B000F9D310BD02464FF0FF30002106E0054B08
:1092C0005B5C934201D1084602E0491C0429F6D3B5
:1092D00000BF70478262030010B5002000F074FAEE
:1092E000044600BF1CB1062C01D0204610BD00BFB3
:1092F000012000F069FA044600BF1CB1062C01D021
:109300002046F3E700BF0020F0E700002DE9F04120
:1093100006460F464FF0000800243046FFF7CAFF0C
:109320000446042C3ED20FB3012F02D0022F38D1B5
:1093300030E004EB4400214911F8008004EB4400C4
:109340000844407850B11E4A4FF400411D4800685F
:10935000FEF7B2FC05460DB91948067004EB44004F
:10936000164908448078184908551AE015480068DD
:10937000FEF7CCFC1448005D04EB44010F4A114495
:109380008978884205D104EB44001146084490F8DE
:10939000028006E004EB44000849084490F801808C
:1093A00000BF00BFB8F1000F06D00848006818B130
:1093B0004046064909688847BDE8F081B85000205A
:1093C000FC3A002090620300FD3A0020F83A0020A9
:1093D00030B503460020042B23D2012A07D10129EE
:1093E00003D103F10E04E4B200E00024224679B177
:1093F000012902D0022911D104E003EB43040A4DF4
:109400002A550DE003EB4304074D2C44627007E03E
:1094100003EB4304044D2C44A27001E0072000BF7D
:1094200000E0072030BD0000B850002070B50446B1
:1094300000250548007800F0010018B1204600F032
:1094400005F80546284670BDF03A00202DE9F047A2
:10945000044600260025D748007820B10020D549D1
:10946000087003F01BF8182C79D2DFE804F00C1117
:10947000124579ADF1FFEEEDECEBEAE9E8E7E6E560
:10948000E4E3E2E1E0DF03F009F8CB4804708DE1AA
:1094900000BF0020FFF7E2FE58B10020FFF7CAFE30
:1094A000022C02D14FF4E16001E04FF47A600546EE
:1094B00009E00020FFF7C8FE022C01D1C82001E01E
:1094C0004FF4C8700546BC4804704FF40040A5FB3B
:1094D00000204FF4FA73D71840F100015A0000231E
:1094E0003846FCF78DFF814600224946B3480068A4
:1094F000FEF7E2FB064659E10020FFF7AFFE58B148
:109500000020FFF797FE032C02D14FF4487001E0D2
:109510004FF47A60054609E00020FFF795FE032C22
:1095200001D1C82001E04FF4C8700546A24804707C
:109530004FF40040A5FB00204FF4FA73D71840F118
:1095400000015A0000233846FCF75AFF81460022EA
:1095500049469A480068FEF7AFFB064626E124E13B
:109560000020FFF77BFE58B10020FFF763FE042CBC
:1095700002D14FF47A6001E04FF47A6005460AE0C8
:109580000020FFF761FE042C02D14FF4C87001E007
:109590004FF4C8700546884804704FF40040A5FB9E
:1095A00000104FF4FA73CF1840F100015A00002365
:1095B0003846FCF725FF8146002249467F4800686F
:1095C000FEF77AFB0646F1E00020FFF747FE50B1B8
:1095D0000020FFF72FFE052C01D1C82001E04FF439
:1095E0007A60054609E00020FFF72EFE052C01D128
:1095F000C82001E04FF4C87005466F4804704FF46E
:109600000040A5FB00204FF4FA73D71840F1000189
:109610005A0000233846FCF7F3FE814600224946F3
:1096200066480068FEF748FB0646BFE0B8E0B6E0D3
:10963000AAE0A1E098E092E05FE05DE05BE059E045
:1096400057E051E042E033E024E015E00EE0FFE7B0
:109650000020FFF7D7FD58480470002240F6CD41A6
:1096600056480068FEF728FB06469FE00020FFF7FB
:10967000EBFD5148047099E001204E490870FFF756
:10968000C1FD002240F6CD414C480068FEF714FBB6
:1096900006468BE0012047490870FFF7B3FD002222
:1096A0004FF4804145480068FEF706FB06467DE022
:1096B000012040490870FFF7A5FD002240F6CD418A
:1096C0003E480068FEF7F8FA06466FE00120394987
:1096D0000870FFF797FD00224FF48041374800687B
:1096E000FEF7EAFA064661E0FFF7DAFD3248047059
:1096F0005CE000BF00BF00BF00BF31480068FEF75C
:1097000005FB0646C4F1110515B30EBB012D18D992
:10971000A8B2C82148434FF4004180FB01304FF408
:10972000FA729F1840F10001520000233846FCF7FE
:1097300067FE81460022494621480068FEF7BCFAD0
:1097400006460220FFF780FD01201E49087005E053
:109750000220FFF76FFD00201A49087026E002F092
:109760009DFE1548047021E002F098FE0020FFF7EE
:109770006BFD1148047019E002F090FE0120FFF724
:1097800063FD0D48047011E002F088FE0020FFF731
:109790005BFD0120FFF758FD0748047006E000BF9D
:1097A000FFF77EFD0448047000E000BF00BF3046B4
:1097B000BDE8F087ED3A0020EC3A00208862030013
:1097C0008C620300F43A002010B5044601212046C3
:1097D0000CF0F6F910BD000010B504460C2000BFD7
:1097E0004FF0A042114600BFD1F81025C24002F050
:1097F000010222B101210B2004F099FE06E00022B3
:109800004FF4004102480068FEF756FA10BD000010
:10981000306203002DE9FC4704460D461646A71C9E
:109820004FF001080020019001A8FEF787FA3048A8
:10983000006828602E4800682D494968411A2C4864
:109840008068401CA0EB010915E00121294803F0C4
:10985000C6FB03F057F882465146264803F0BFFB8B
:109860002348006822494968411A21488068401C01
:10987000A0EB010900BF4F45E7D8B8F1000F30D089
:109880000021009176B1009921F00301491C00915B
:10989000009921F00401091D0091009964F38911D8
:1098A00000910DE0009921F00301891C00910099BD
:1098B00021F00401091D0091009964F39F5100916A
:1098C0000B4909680A4A92681140094A0C3202EBB6
:1098D0008100009901600649096839440C3A116019
:1098E00000BF9DF80400FEF74BFA4046BDE8FC8738
:1098F000805C00209C60002070B504460D46A16885
:10990000481CA06020684554D4E90110884202D365
:10991000204604F0C6F970BD044840680349096850
:10992000884201D1012070470020FCE7805C0020C4
:10993000FEB507460020032103460122CDE90010B1
:109940001146082004F064FD0021082004F0EFFD1A
:109950000020032103460122CDE9001011460B200F
:1099600004F056FD01210B2004F0E1FD002003214D
:1099700003460122CDE900101146072004F048FDFE
:109980000021072004F0D3FD06F0DCF810B906F042
:1099900079F804460C2006F051F81B480068029044
:1099A00003208DF80900194A02A90C2005F0CCFF0C
:1099B000044600BF25463DB100BF15A240F28761B5
:1099C0002846FCF727FC00BF00BF01210C2005F052
:1099D00065FF0020032103460122CDE90010114656
:1099E0000D2004F015FD00210D2004F0A0FD02253E
:1099F000002600200090334602460146019028468A
:109A000004F006FD00BFFEBD68620300F51D030003
:109A10002E2E5C2E2E5C2E2E5C6D61696E2E6300E8
:109A200001460A6892FAA2F000BA704701468879A6
:109A3000012809D10879012806D1488842F6021286
:109A4000904201D1012070470020FCE74FF0FF3128
:109A5000054A42F82010082804DBFF23A0F1080182
:109A600050325354704700001C54002001460248F5
:109A700050F82100704700001C5400202DE9F04FE1
:109A800003460C464FF0FF390AB1002000E00820E1
:109A900084460AB1082000E00C208046614624E09C
:109AA000154850F82100401CF0B91D4608462746CD
:109AB00016464FFA80FBDFF840A00AF1300A0AF898
:109AC00005B0DFF834A04AF820704EB94FFA85FB94
:109AD000A0F1080ADFF820E00EF1500E0EF80AB0EF
:109AE00000BF4FFA81F902E0491C4145D8D300BFBD
:109AF0004846BDE8F08F00001C5400200146014894
:109B0000405670474C54002070B594B00546574BF2
:109B10000FCB0FAC0FC44EF60270ADF84C00A11C79
:109B20000FA862DF044600BF264636B100BF50A230
:109B30006B213046FCF76EFB00BF00BF1C2108A85C
:109B4000FCF7BBFC9DF8200020F00200801C8DF883
:109B500020009DF8200020F0080008308DF820003B
:109B60000020079000BF9DF81C0020F00F00401C53
:109B70008DF81C009DF81C0020F0F00010308DF8CE
:109B80001C0000BF00BF9DF81D0020F00F00401C0E
:109B90008DF81D009DF81D0020F0F00010308DF8AC
:109BA0001D0000BF9DF81E0020F00600801C8DF8EF
:109BB0001E0007A80D909DF8200020F01000103026
:109BC0008DF82000002006909DF81A0020F0060075
:109BD000801C8DF81A009DF81A0020F00100401C2E
:109BE0008DF81A0000BF9DF8180020F00F00401CEF
:109BF0008DF818009DF8180020F0F00010308DF856
:109C0000180000BF00BF9DF8190020F00F00401C95
:109C10008DF819009DF8190020F0F00010308DF833
:109C2000190000BF142101A8FCF747FC13A80190FC
:109C300006A80290F420ADF810000120ADF80C0049
:109C4000E88805F1080301AA08A9AADF044600BFB5
:109C5000264636B100BF06A297213046FCF7DAFA55
:109C600000BF00BF002014B070BD0000CC63030033
:109C7000736572766963655F785C73657276696334
:109C8000655F6164632E63002DE9F04104460D4673
:109C90004FF6FF76304684420AD14FF48071284651
:109CA00008F0CEFA0646B6F5807F0FD126460DE0C5
:109CB000FF2C0BDC2146284608F0B2FA07460FB10C
:109CC000204601E04FF6FF70064600BF3046BDE873
:109CD000F081000010B5134800681349086013496B
:109CE000C87C134909688847124813490860002056
:109CF0001249C1F810010120086100BF0A48F0387C
:109D000000680028FAD000200749F03908600548AB
:109D1000006840F004000949C1F8000201204860D1
:109D200010BD0000C43B0020001200400855002078
:109D3000D03B0020EA5700200415004000100040EE
:109D400070B505460DB9094C01E0084C083409E02E
:109D5000204602F096FB064606B904E028467168E4
:109D6000884700BFF4E700BF70BD0000105400201A
:109D700010B504462CB90120064948700020FFF7B1
:109D8000DFFF012C04D1012002498870FFF7D8FFC2
:109D900010BD0000085400202DE9F04782461F48FE
:109DA0000068002836D01D480068056809F064F98D
:109DB00007461B480468214638460BF031F9C61C9B
:109DC0001848007808B909F069F9AE4201D228466E
:109DD00000E03046044424F07F44204609F046F970
:109DE00009F04AF98046394640460BF019F900F16E
:109DF0000309394620460BF013F9814509D909F0CA
:109E00003BF9814609F032F92F2005F00BFD0BF0EC
:109E1000C9FA01E009F060F9BDE8F087EC3B0020E9
:109E2000F03B0020FE3B002001468878012805D148
:109E300091F82000012801D100207047886A042889
:109E400002D0486A042801D10020F6E70120F4E797
:109E500033B58BB00546002000900C9878B10024F3
:109E60000BE021460CA803F087F828B1009A501C9B
:109E7000009001A820F81240641C142CF1D32C226D
:109E800069462846FCF700FB0DB030BD0146088846
:109E9000062808DB0888B0F5486F06DD08884FF60D
:109EA000FF72904201D0072070474888062808DBDF
:109EB0004888B0F5486F06DD48884FF6FF7290423B
:109EC00001D00720F0E708884FF6FF72904208D0D3
:109ED0004888904205D008884A88904201DD0720D2
:109EE000E2E70020E0E72DE9F04107460D46144681
:109EF00098462088801D404502D90C20BDE8F0819D
:109F00003846FFF7C3FF064600BF304600B1F5E70D
:109F100000BF0520218868542088401C2080122022
:109F2000218868542088401C208022885119388854
:109F30000BF069FB21880844208022885119788819
:109F40000BF061FB2188084420800020D6E7000048
:109F500010B5044600BF04A240F2E2412046FCF7DF
:109F600059F900BF10BD00002E2E5C2E2E5C2E2E47
:109F70005C6D61696E2E630030B587B01C21684648
:109F8000FCF79BFA002000904FF4203001904FF432
:109F90007020029005208DF80C000020ADF80E0016
:109FA0008DF810000A4805900A4806906846FEF7AA
:109FB00019FD044600BF25463DB100BF06A240F290
:109FC000F9412846FCF726F900BF00BF07B030BDB5
:109FD000C9050300519F02002E2E5C2E2E5C2E2EF2
:109FE0005C6D61696E2E6300F8B505460C46607ABB
:109FF00088B9207A10B91048476801E00E48876890
:10A000002A4639466068FDF757FE064616B13046C7
:10A0100009F024FE0EE0002020720748406948B194
:10A0200001208DF80000ADF80250034841696846F0
:10A03000884700BFF8BD0000185100207CB50546D8
:10A0400015480078401C144908700820ADF800003D
:10A050005020ADF802000020ADF804004FF4FA6083
:10A06000ADF8060069460D480088FEF799FC0446E5
:10A0700044B90B490988032242EA014009A104F0CE
:10A0800035FD07E006490988032242EA01400DA197
:10A0900004F02CFD7CBD0000AD3A0020E63A002023
:10A0A000583D002020636F6E6E20706172732075C2
:10A0B0007064617465207265717565737420736571
:10A0C0006E74000020636F6E6E2070617273207575
:10A0D0007064617465207265717565737420736551
:10A0E0006E74206661696C65642021212120000066
:10A0F000F0B585B004460D4617461E4614220B499E
:10A100006846FCF7C1F9ADF802408DF80850ADF88B
:10A110000A708DF80C600022054801782046FEF791
:10A120002DFD684600F002FC05B0F0BDA063030001
:10A13000483B002010B586B00446208807F0EAF8B6
:10A1400000BB2088FEF7A6FC30B92088012241F22E
:10A15000060100F097F915E0208800220A490978E5
:10A16000FEF70CFD02208DF804002088ADF80600F3
:10A1700000208DF80C0000218DF80D1001A800F0D2
:10A18000D5FB00BF06B010BD483B002010B5012232
:10A1900000210846FFF71CF9044600BF1CB1072C3C
:10A1A00001D0204610BD00BF072202210120FFF789
:10A1B0000FF9044600BF1CB1072C01D02046F1E77F
:10A1C00000BF042202210020FFF702F9044600BF6D
:10A1D0001CB1072C01D02046E4E700BF0020E1E7D6
:10A1E0002DE9FF4105460C46002002900390ADF892
:10A1F0000840ADF80A40009001906A4602A928463E
:10A2000090DF0646002E2CD0304605F0BBFA0746FC
:10A2100016490988012242EA01403B462A46144970
:10A2200004F07AFCBDF8000010B9BDF8020058B186
:10A23000BDF80230BDF800200C490988012747EA23
:10A2400001400CA104F068FCBDF8040048B1BDF861
:10A25000042006490988012343EA0140154904F016
:10A260004FFC304604B0BDE8F0810000143D0020F2
:10A270007C69030054686520726571756573746547
:10A28000642054582F5258207061636B6574206CA1
:10A29000656E67746820697320746F6F206C6F6ED1
:10A2A000672062792025752F2575206F637465748A
:10A2B000732E0000C869030070B504460D460021E6
:10A2C000074807F0ADFF40B1204602F0B1FA00B1F7
:10A2D00070BD0021024807F0DDFF00BFF8E7000075
:10A2E000193B002070B50C490988032242EA01405D
:10A2F0000AA104F0FBFB08F023F9044600BF254641
:10A300003DB100BF09A240F2EE512846FBF782FFA3
:10A3100000BF00BF70BD0000583D00204572617352
:10A320006520626F6E647321000000002E2E5C2E8B
:10A330002E5C2E2E5C6D61696E2E630070B5064634
:10A340000D460EB1012070BD287920B1012809D039
:10A35000022813D10FE002202871284608F0E6FCFD
:10A3600004460DE0284600F0E3FD04460A2C01D126
:10A3700041F61D5404E041F61D5401E00F2400BFD6
:10A3800000BF2046DFE770B5044620793D2802D1A2
:10A3900041F23D0001E04FF488500546208800223C
:10A3A000294602F013F970BD10B50021034802F0F0
:10A3B0004DFE044684F3100010BD00009C60002098
:10A3C00010B50446022102480BF092F910BD0000BE
:10A3D000943A002010B509490988032242EA014055
:10A3E00007A104F083FB0B490A7804490988032379
:10A3F00043EA014008A104F083FB10BD583D002052
:10A4000064756D6D795F736D5F68616E646C6572A4
:10A4100000000000D03A0020736D3A20256400004F
:10A42000014614480078144A127890421DD0114811
:10A430000078401C0F4A107010460078022801D1A5
:10A44000002010700D480B4A127850F82200086066
:10A450000B4A086812681044094A106010460068E8
:10A4600020F07F401060012070470020086000BF8E
:10A47000FAE70000FC3B0020FD3B0020F43B0020FD
:10A48000F03B002070B506460C4615462B4622468A
:10A4900000213046FFF72CFE70BD00002DE9F84387
:10A4A00005460E461746984669461048006802F071
:10A4B000D5FC044614B90420BDE8F8831C212046CD
:10A4C000FBF7FBFF012020712560C4F808800848D5
:10A4D0000068B6FBF0F0E060676169460348006819
:10A4E00002F0E6FC08F08CFA0020E5E7DC650300EA
:10A4F000D065030010B50446D4E90321501828DFC5
:10A5000010BD00000D48007806280FD10B48001D33
:10A51000007800070AD1094808300078C0F303101A
:10A52000032805D0042805D0052805D00020704751
:10A53000012070470120704701207047E00F00F0B4
:10A540000D48007806280FD10B48001D0078000741
:10A550000AD1094808300078C0F30310032805D059
:10A56000042805D0052805D0002070470120704739
:10A570000120704701207047E00F00F00D4800787F
:10A5800006280FD10B48001D007800070AD10948A2
:10A5900008300078C0F30310032805D0042805D044
:10A5A000052805D000207047012070470120704722
:10A5B00001207047E00F00F00948007806280BD111
:10A5C0000748001D0078000706D1054808300078CC
:10A5D000C0F30310032801D000207047012070470A
:10A5E000E00F00F04FF08050D0F83011062903D171
:10A5F000D0F83401062801D00020704701207047B0
:10A600000D48007806280FD10B48001D0078000780
:10A610000AD1094808300078C0F30310032805D098
:10A62000042805D0052805D0002070470120704778
:10A630000120704701207047E00F00F009480078C2
:10A6400006280BD10748001D0078000706D10548F1
:10A6500008300078C0F30310032801D000207047B1
:10A6600001207047E00F00F00D48007806280FD158
:10A670000B48001D007800070AD10948083000780F
:10A68000C0F30310032805D0042805D0052805D001
:10A69000002070470120704701207047012070475B
:10A6A000E00F00F00948007806280BD10748001D8C
:10A6B0000078000706D1054808300078C0F3031081
:10A6C000032801D00020704701207047E00F00F000
:10A6D0000948007806280BD10748001D00780007BC
:10A6E00006D1054808300078C0F30310032801D0D4
:10A6F0000020704701207047E00F00F00948007803
:10A7000006280BD10748001D0078000706D1054830
:10A7100008300078C0F30310052801D000207047EE
:10A7200001207047E00F00F00278072A38D2DFE8F6
:10A7300002F037040712222B340000220A7030E0A6
:10A7400001220A7003898B818388CB81C2688A6069
:10A7500000230B7425E002220A7003898B81838811
:10A76000CB81C2688A60827D062A01D1012300E084
:10A7700000230B7415E003220A70C3888B810389C0
:10A78000CB81C2688A600CE004220A70C3888B8186
:10A790000023CB8100228A6003E005220A7000E0DA
:10A7A00000BF00BF7047000070B50546002409E0F7
:10A7B000064850F8240020B1044850F824102846D8
:10A7C0008847641C042CF3D370BD0000F4590020AA
:10A7D00030B587B004460D462068806808B907B0D8
:10A7E00030BD182101A8FBF768FE0295A06806900D
:10A7F000207910B1012815D109E001208DF804005D
:10A8000020690390E0680490606905900BE00220E5
:10A810008DF804000749E0680968484303906069BF
:10A82000059000E000BF00BF2068816801A888474C
:10A8300000BFD4E7D065030070B586B006460C466D
:10A8400015469CB3112C31D0082C2FD0142101A80F
:10A85000FBF733FEADF80660304601F081FAADF843
:10A8600008000D2C14D103208DF804002DB1287898
:10A8700000F0010008B1012000E002208DF80C007A
:10A8800000218DF8101041F20111ADF80E1009E011
:10A89000862C03D106208DF8040003E007208DF8F4
:10A8A0000400039401A800F055F800BF06B070BD85
:10A8B00010B50446204600F04DF810BD70B50446B2
:10A8C000608801F04DFAA080002505E0044850F8AA
:10A8D0002510204688476D1C002DF7D070BD000064
:10A8E000143B002070B50546002405E0044850F8EC
:10A8F000241028468847641C022CF7D370BD000042
:10A900001C63030070B50546002405E0054850F8B7
:10A91000241028468847641C034800788442F5DBED
:10A9200070BD0000BC530020463B002070B50446BB
:10A93000608801F015FAA080002505E0044850F871
:10A940002510204688476D1C002DF7D070BD0000F3
:10A950007463030070B50546002405E0044850F810
:10A96000241028468847641C002CF7D070BD0000D6
:10A97000C8630300F0B5034600241FE0124E3068A0
:10A9800006689E4203D90668F61A06601AE0066851
:10A990009B1B06683444002606600B4E35680A4F40
:10A9A000C6693E60C66846B10E1926F07F4646600D
:10A9B000C66886601668C661156000BF02480068F8
:10A9C0000028DBD100BFF0BDEC3B002010B586B005
:10A9D0000446142101A8FBF770FDA08900F0C2FA1B
:10A9E000ADF808002078062854D2DFE800F05303C1
:10A9F00004052E4800BF00BFA08900F0B8FA18B9BE
:10AA0000E08908F0B2FAF8B1E08908F0ABFA8DF805
:10AA10000C002078032801D1012100E000218DF8ED
:10AA20000D10A1680491606830B908208DF8040009
:10AA300001218DF8141004E009208DF804006168EC
:10AA4000059101A806F06CFE25E0A08900F08FFAC0
:10AA5000A0B1E08990B9606838B90A208DF8040087
:10AA6000BDF8080007F070F802E00B208DF8040034
:10AA700001200D49087001A806F052FE0BE01320DA
:10AA80008DF804004FF6FF70ADF8080001A806F03D
:10AA900047FE00E000BF00BF0348007808B106F0A1
:10AAA000B1FF06B010BD0000293B002038B50546B7
:10AAB0000E48007808B9022038BD4FF6FF70854275
:10AAC00001D10420F8E7684607F07CFE04460CB983
:10AAD0000820F1E70520207001202071E5806846FC
:10AAE00007F080FE07F080FF0020E5E7003C002033
:10AAF00038B50D48007808B9022038BD684607F01F
:10AB000061FE04460CB90820F7E70620207068466D
:10AB100007F068FE0548007810B10120034908736A
:10AB200007F062FF0020E8E7003C0020B85A002050
:10AB300070B586B0142101A8FBF7BFFC2D48007842
:10AB400028B101A8FFF730FE002006B070BD2948EB
:10AB5000001D02F03DFA08B10020F6E700F0D4FA3B
:10AB600006460EB13046F0E707F068FE06F01CFB23
:10AB7000054625B1022D03D0062D0DD102E000BF00
:10AB80000B20E2E701201B4908700020486001A863
:10AB9000FFF70AFE0020D8E700BF00BF684607F0B5
:10ABA00011FE04460CB90820CFE7012020700C2DBF
:10ABB00016D2DFE805F01506150715111512150A4E
:10ABC0000E0B00BF002020710BE000BF032020719E
:10ABD00007E00220207104E000BF0120207100E0A6
:10ABE00000BF00BF684607F0FDFD07F0FDFE002036
:10ABF000ABE70000003C002038B504460CB9052046
:10AC000038BD6946204608F0AFF800B3BDF8000033
:10AC100000EB80000F4901EB8000C068A8B1A07A6A
:10AC200098B1BDF8000000EB800001EB8000C06827
:10AC3000401EBDF8001001EB8101064A02EB8101C4
:10AC4000C8600020A072002502E0062500E00A2569
:10AC50002846D5E7905A00207FB514461D462B465E
:10AC6000224601A9684608F01BF804B070BD37B54C
:10AC70000C4615462B4622466946002008F010F87F
:10AC80003EBD37B50C4615462B4622460021684688
:10AC900008F006F83EBD024602B109B9052070472A
:10ACA000106808600020FAE7F8B504460D4604B1C4
:10ACB0000DB90520F8BD6946204608F055F8A0B149
:10ACC0006668BDF8001001EB8101094A02EB8101C1
:10ACD00001F10C00012102F082F92E6060680C3055
:10ACE00068600120A0720020E4E70A20E2E700008B
:10ACF000905A002070B504460D460CB9052070BD71
:10AD000003230022294620460BF01EF9F7E770B511
:10AD100004460D4602230022294620460BF014F972
:10AD200070BD70B505460E4614460CB9052070BDC1
:10AD300002232246314628460BF006F9F7E70000C9
:10AD400070B5054608480068042801D10C2409E0C4
:10AD500006480549096840F821500121024802F0DF
:10AD60003EF90024204670BD0C3C0020F459002020
:10AD7000F8B504460D460A48007808B90220F8BD27
:10AD80000CB90520FBE7694628460BF0EDF90646AD
:10AD90001EB9BDF80000208065803046EFE7000056
:10ADA000003C002070B504461148007808B9022024
:10ADB00070BD0CB90520FBE72088022801DD0420C6
:10ADC000F6E7208800EB80000A4901EB80066088E6
:10ADD000C01C7189884208DC218860880BF0B2F9B8
:10ADE000002020806080002500E004252846DFE761
:10ADF000003C0020905A002010B50446024800781C
:10AE000005F05CFB10BD0000AE3A00202DE9F041DA
:10AE1000044688461646D4F80802B0F5007F03D1F0
:10AE200000203060BDE8F08104F5007003C888425E
:10AE300005D2D4F80012D4F80402451A06E0D4F87A
:10AE40000012C1F50071D4F8040245183068A84218
:10AE500000D235683560D4F800022844B0F5007F90
:10AE600015D9D4F80002C0F50077D4F80002011912
:10AE70003A464046FBF708FBB844D4F80802384489
:10AE8000C4F808020020C4F80002ED1B00BFD4F88B
:10AE9000000201192A464046FBF7F6FAD4F80002F0
:10AEA0002844C4F80002D4F808022844C4F8080270
:10AEB00000BFB7E72DE9F047044688461646D4F8A8
:10AEC0000802B0F5007F03D100203060BDE8F087B4
:10AED000D4F8007204F5007003C8884205D2D4F893
:10AEE0000012D4F80402451A06E0D4F80012C1F5A5
:10AEF0000071D4F8040245183068A84200D23568C1
:10AF000035607819B0F5007F0BD9C7F50079E119E4
:10AF10004A464046FBF7B8FAC8440027A5EB0905A6
:10AF200000BFE1192A464046FBF7AEFA00BFCDE765
:10AF30003EB504460A4B6A460021A01D07F0B0FE4C
:10AF4000054635B9064A9188019807F087FF0546FE
:10AF500003E0034800210160416028463EBD000037
:10AF6000303C00200146A1F5404080B270470146C8
:10AF7000B1F5404F05DB4FF6FE70814201DC012048
:10AF800070470020FCE710B50446E07FFF2808D09A
:10AF9000A07F18B1E07F03F0A8FA02E0E07F03F0A1
:10AFA000BBFA00206077207204F10800D4E9002188
:10AFB000904710BD10B504462078182802D1FDF73F
:10AFC000B9FD207010BD10B504462078182802D1B4
:10AFD000FDF7B0FD207010BD30B504461088C01CD0
:10AFE000984201D90C2030BD0220158848551088A0
:10AFF000401C10800120158848551088401C108086
:10B0000015884C551088401C10800020EBE770B567
:10B0100004460D469822115B0122D4F89400FDF7F6
:10B0200068FA064606B1357004F13C0204F1940159
:10B0300004F1540072DF70BD2DE9F04106460C4664
:10B0400015460027B846862C02D100BF012708E02C
:10B05000112C03D14FF00108002702E04FF0000847
:10B060000027C5B13A46134801783046FDF786FD02
:10B070004246114801783046FDF780FD00220F4816
:10B0800001783046FDF77AFD00220D480178304600
:10B09000FDF774FD0BE03A46084801783046FDF7AD
:10B0A0006DFD4246064801783046FDF767FDBDE874
:10B0B000F0810000693B0020683B0020653B0020D8
:10B0C000643B002010B5002002F0EEFF10BD000030
:10B0D00010B54FF4405400F009F8034908610846E0
:10B0E0000069001BC86010BD003D00204FF010201B
:10B0F0004169000402694369481C08B10846704769
:10B1000003FB02F0FBE7000010B5FFF7E1FF0022B0
:10B110000249034802F078FF10BD0000E06503001B
:10B12000003D0020F7B50D4617460DB90020FEBDC5
:10B130000026009868B1002409E02146684601F025
:10B140001BFF18B1A0B23946A847761C641C142C0A
:10B15000F3D33046EBE710B50446606807F09CFB7C
:10B1600010BD00003EB500BF9DF8000020F00F00AC
:10B17000401C00909DF8000020F0F000103000907E
:10B1800000BF062217A168467CDF044600BF2546A3
:10B190003DB100BF15A240F23D412846FBF73AF809
:10B1A00000BF00BF0020019002901020ADF8040005
:10B1B0005020ADF806000020ADF808004FF44870AC
:10B1C000ADF80A0001A87ADF044600BF25463DB16C
:10B1D00000BF06A240F24B412846FBF71BF800BF18
:10B1E00000BF3EBD45784730303100002E2E5C2E2A
:10B1F0002E5C2E2E5C6D61696E2E630070B5002191
:10B20000084801F0C7FF044600BF25463DB100BF16
:10B2100005A240F254412846FAF7FCFF00BF00BFE8
:10B2200070BD0000683D00202E2E5C2E2E5C2E2E60
:10B230005C6D61696E2E630070B505460DB101202D
:10B2400070BD1848007B18B100201649087301E052
:10B2500000F0DEF81348007808281DD2DFE800F07F
:10B260001C04080C101C141800F03EF8044615E0ED
:10B2700000F0BCF8044611E000F098F804460DE038
:10B2800000F046F8044609E000F02CF9044605E019
:10B2900000F03AF9044601E00F2400BF00BF204649
:10B2A000CEE70000B85A00200D480089401C0C4928
:10B2B000088100204880087300BF0DE000EB80018A
:10B2C000084A12F8211009B9012200E000220449BD
:10B2D0000A310A54411C88B20228EFDB7047000093
:10B2E000B85A0020905A002010B5084800F036F8EF
:10B2F00040B900200549891E08704880486041F621
:10B300001D5010BD00F072F8FBE70000BA5A002093
:10B3100070B50F48458805EB85000E4901EB8000AC
:10B32000C06878B904200A49087005EB8500094A0D
:10B3300002EB8000002301224168074802F0B8FDBB
:10B34000044602E000F090F80446204670BD00007C
:10B35000B85A0020905A0020003D002010B5014648
:10B360000022002018E00F4B1B5C9BB100240D4B0A
:10B370001C5400EB80030C4C04EB8303DB684BB9DB
:10B3800000EB800304EB83031B7C012B02D10880BC
:10B39000012203E0431C98B20228E4DB00BF104600
:10B3A00010BD0000C25A0020905A0020F8B50C4889
:10B3B00044680C4800680B49898800EB8105608867
:10B3C000C01C86B20320064908700020B30000901C
:10B3D000084629464268044802F0FAFEF8BD00001B
:10B3E000B85A0020283C0020003D002010B5074935
:10B3F0004888091D07F0F6FC18B1FFF7D7FF04468F
:10B4000002E0FFF785FF0446204610BDB85A002031
:10B4100010B514480078082820D2DFE800F0041F97
:10B420001F0A1016171BFFF73FFF01200D49087078
:10B4300015E000F075F802200A4908700FE000F0EE
:10B4400029F806200749087009E000BF07200549D0
:10B45000087004E001200349087000E000BF00BF4D
:10B4600010BD0000B85A002010B50520064908702C
:10B47000022006498880084600230122016804480A
:10B4800002F016FD10BD0000B85A0020283C002034
:10B49000003D0020104908681049498801EB8101EE
:10B4A0000F4A02EB810149680B4A11600B49498838
:10B4B00001EB81010A4A02EB810148600649898853
:10B4C000064A528802EB8202054B03EB820211818D
:10B4D0000221014A91807047283C0020B85A002080
:10B4E000905A002010B5062005490870498801EBE4
:10B4F0008101044A02EB8101486805F033FE10BD6A
:10B50000B85A0020905A002010B50720034908704F
:10B510000020486005F036FE10BD0000B85A00203B
:10B52000054A50684288D21C91B2044A92880A4463
:10B53000024B9A8070470000B85A0020283C002037
:10B5400030B585B00446A5882088502828D05228D8
:10B5500002D054282FD103E0284601F01DF92AE03B
:10B5600014221B496846FAF78FFFADF802502846AF
:10B5700000F0F6FBADF80400BDF8040000F020F97F
:10B580000022144801782846FDF7F8FA00221248F4
:10B5900001782846FDF7F2FA6846FFF78FF90AE0CE
:10B5A000A01DFEF743FA28B10121284601F034F925
:10B5B0000AF0F0F800BF00BF00BF002207490848AA
:10B5C0000078FDF777FA00BF08F0A2FC05B030BDA7
:10B5D000F06203001D3B00201C3B0020697E02003E
:10B5E0001B3B002010B50446207868B9608801F044
:10B5F000D3F8608800F09EF928B1608801220449E0
:10B600000978FDF7BBFA00E000BF00BF10BD0000E5
:10B610001C3B002010B500F0EFFDFDF78BFA14493C
:10B620000870FDF787FA13490870FDF783FA12498D
:10B630000870FDF77FFA114908700D480078182846
:10B640000BD00C480078182807D00B480078182831
:10B6500003D008460078182801D1032010BD01212D
:10B66000074806F0D3FD0120064908700020F5E7E1
:10B670001A3B00201B3B00201C3B00201D3B0020F0
:10B68000193B0020183B00207CB504462078082890
:10B690003AD1607A002837D1207A012811D00728C2
:10B6A00002D008282ED128E0A08800F07FFA0546B5
:10B6B0004FF6FF70854203D00121284601F0ACF817
:10B6C00021E0A0886A46012105F00AFF06469EB9DE
:10B6D0000198007880B1A08800F068FA05464FF61E
:10B6E000FF70854207D00122094801782846FDF7FE
:10B6F00045FA08F00DFC00BF05E00021054806F002
:10B70000C9FD00E000BF00BF0AF044F87CBD0000A6
:10B710001C3B0020193B002010B502460B460021BF
:10B7200010E0906810F831001478A04209D19068B8
:10B7300000EBC1004078984203D1906800EBC10053
:10B7400010BD491C50688842EBDC0020F8E700007F
:10B7500010B504460B4801782046FDF7F9F970B1A1
:10B7600000210AE001EB4100074A02EB800040881B
:10B77000A04201D1C8B210BD491C1429F2D3FF2048
:10B78000F9E70000253B0020AC51002010B5002453
:10B790000DE004EB4401084A02EB810148880749A7
:10B7A0000978FDF7D5F908B9E0B210BD641C142C76
:10B7B000EFD3FF20F9E70000AC510020253B00202B
:10B7C0001CB50446044903C9CDE9000100226946BD
:10B7D000204605F0BCFE1CBD1463030010B500F04C
:10B7E00011FD012001490870002010BD1E3B002002
:10B7F0002DE9FC478146484600F0B2FA054600268E
:10B8000000274FF003084FF0010A4FF6FF70854202
:10B810000CD06A460821284605F062FE04462CB981
:10B820000198861D8788D0F8008000BF00BF43467E
:10B830003A4631464846B1DF0446042C01D1112472
:10B8400015E0082C01D1002411E00B2C0FD14FF092
:10B85000000A08F0020010B14FF0010807E006B935
:10B8600027B1002600274FF0030800E003240B2C2B
:10B87000DDD0BAF1000F00D10B242046BDE8FC87D3
:10B880002DE9FC478046404600F06AFA06464FF62E
:10B89000FF70864203D143F20200BDE8FC874FF0FF
:10B8A00001094FF0000A00BF4FF0000A4A46511C40
:10B8B0001FFA81F96B460821304605F053FE044615
:10B8C0000CBB019D032028602A1DA91D40462B6842
:10B8D000B2DF044634B932460821304605F0C7FECF
:10B8E00004460FE00C2C02D14FF0010A02E0052CB7
:10B8F00000D100240821304605F09EFE074607B11E
:10B90000032400BF02E0072C00D10C24BAF1000F81
:10B91000CAD100BF2046C0E710B5044604480088DD
:10B920004FF6FF71884201D008F0FEFA10BD00000A
:10B93000203B0020FEB5044602A80190204600F0FE
:10B940000FFA06466A460121304605F0C9FD054654
:10B950000DB10020FEBD01980078FBE770B50546EB
:10B960004FF6FF760E48B3DF04460CB1032070BDDE
:10B9700000BF4FF6FF720A4801882846AFDF044631
:10B9800043F20300844204D105480088401C044966
:10B99000088043F203008442EBD02046E7E7000032
:10B9A000223B002070B504460D46204600F01AF8F0
:10B9B000A84201D9022070BDA0884FF6FF718842CD
:10B9C00001D0208808B90120F5E70020F3E70246FE
:10B9D00013468B4204D21868401C08B101207047FE
:10B9E0000020FCE701464A8801F10C0000EB8200D0
:10B9F000704710B502F0FAFE08B903F0C9FA10BD9D
:10BA000010B50C490988032242EA01400AA103F05B
:10BA10006DF80C490A7807490988032343EA014075
:10BA200009A103F06DF80A4A01210A48FCF734F82D
:10BA300010BD0000583D002069646C655F746F5F45
:10BA400072656300D03A0020736D3A2025640000CF
:10BA500099740200A73A00203EB504460D462078AE
:10BA60000221B1EB500F01D000203EBDB4F801001F
:10BA7000ADF80800E0788DF80A00A188ADF8001054
:10BA8000A0798DF8020001AA69462846FBF7C8FE96
:10BA9000032201A902A8FAF722FD08B90120E4E770
:10BAA0000020E2E770B506460C463046FFF750FE30
:10BAB0000546FF2D0CD005EB4500064901EB800043
:10BAC000416821600189A180807AA071002070BD49
:10BAD0000520FCE7AC51002070B590B005462888E1
